S01000007A6D6F64343431302E7372656391
S31500000000880A0020A5260000CD240000A1260000B5
S31500000010A1260000A1260000A1260000A1260000BE
S31500000020000000000000000000000000A126000003
S31500000030A126000000000000A1260000A126000065
S31500000040951C0000291E0000491F00002920000001
S31500000050B5220000B91400002D1400004915000057
S3150000006091150000000000000000000000000000E4
S31500000070000000000000000000000000000000007A
S31500000080000000000000000000000000000000006A
S31500000090000000000000000000000000000000005A
S315000000A0000000000000000000000000000000004A
S315000000B0000000000000000000000000000000003A
S315000000C0000000000000000000000000000000002A
S315000000D0000000000000000000000000000000001A
S315000000E0000000000000000000000000000000000A
S315000000F000000000000000000000000000000000FA
S3150000010000000000000000000000000000000000E9
S3150000011000000000000000000000000000000000D9
S3150000012000000000000000000000000000000000C9
S3150000013000000000000000000000000000000000B9
S3150000014000000000000000000000000000000000A9
S315000001500000000000000000000000000000000099
S315000001600000000000000000000000000000000089
S315000001700000000000000000000000000000000079
S315000001800000000000000000000000000000000069
S315000001900000000000000000000000000000000059
S315000001A00000000000000000000000000000000049
S315000001B00000000000000000000000000000000039
S315000001C00348044B834202D0034B03B118477047E0
S315000001D06C0100206C01002000000000064B07495E
S315000001E0C91A891048BF0131491003D0044B0BB11D
S315000001F001481847704700BF6C0100206C010020C1
S315000002000000000010B5064C237843B9FFF7D8FF6D
S31500000210044B13B10448AFF300800123237010BDD3
S315000002208801002000000000D05B000008B5054BE7
S315000002301BB105490548AFF30080BDE80840FFF74C
S31500000240CDBF00BF000000008C010020D05B000085
S3150000025008B5074B9B68D3E90112186812689047E6
S3150000026000B908BD1C21034B034A044802F0FAF802
S3150000027000000020405500000C56000054550000B8
S315000002800379044A062B137002D00122024B1A701E
S31500000290704700BFBD010020BE0100200379012B7D
S315000002A004BF014A13707047BC01002008B5074B14
S315000002B0D3E9011218681268904700B908BD7D217C
S315000002C0034B044A044802F0CDF800BF88560000EC
S315000002D040550000EC5500005455000000232DE960
S315000002E0F047284A284C17689668284D824688B0F9
S315000002F03846726823702B70904700283CD12B78C3
S31500000300002BFCD04FF00008DFF8989085F80080AD
S315000003102378002BFCD069463846336984F8008080
S315000003209847484505D14FF47A71322002F0A2F879
S31500000330EEE7D8B92B7803F0FF04002BFAD07369E7
S3150000034000265246694638462E70984718B9204608
S3150000035008B0BDE8F0870E4B984208BF3446F6D089
S31500000360D4210C4B0C4A0D4802F07CF8BE210C4BF4
S31500000370094A0A4802F076F89321094B064A0748CB
S3150000038002F070F888560000BC010020BE01002073
S315000003900100030068550000A855000054550000F0
S315000003A040550000020003002DE9F04F4FF0000A0F
S315000003B0B7B0FFF74DFFFFF779FFC822002104A869
S315000003C002F058FF2E492F4800F060FE2E4B04AE77
S315000003D00FCB07C61F0C26F8023BDFF8A8B02B4C44
S315000003E02B4D377004A884F800A002F060FF04A922
S315000003F00246584600F000FE237833B9012108462C
S3150000040002F038F82378002BF8D02846FFF766FF6D
S31500000410A86802F0DFFDD5F81480D5F80C900646E2
S3150000042048460F4602F0D6FD02460B464046CDE949
S31500000430022302F0CFFD804689463B4632461549E7
S31500000440CDE9008904A802F0F5FE04A884F800A00E
S3150000045002F02DFF04A90246584600F0CDFD237890
S3150000046033B90121084602F005F82378002BF8D0AD
S315000004704FF47A714FF4FA7001F0FCFFB2E700BF57
S31500000480F45600003C03002070550000BF01002018
S31500000490A401002080550000022800D070470249C0
S315000004A0024801F055B900BF28570000C0010020DE
S315000004B00379022B02D10122014B1A70704700BF4B
S315000004C0BF01002008B5FFF76FFF002008BD00BF81
S315000004D006207047062070470620704706207047A2
S315000004E038B5C06D1446056A0A46D0E906102B4693
S315000004F002F0B6FB002812DB2A680A4B22600128AC
S3150000050008BF18466B6818BF00206360AB68A3601D
S31500000510EB68E3602B6923616B69636138BD012079
S3150000052038BD00BF0100030008B5C36D93ED010A95
S31500000530D3E9061002F0C6F9003818BF012008BD3D
S315000005400620704706207047062070470620704731
S315000005500620704706207047062070470620704721
S31500000560062070470620704706207047C36DDB687B
S315000005705B691847C36DDB689B691847C36DDB6809
S31500000580DB691847C36DDB681B6A1847C36DDB68F8
S315000005905B6A1847C36DDB689B6A1847C36DDB68E7
S315000005A0DB6A1847C36DDB681B6B1847C36DDB68D6
S315000005B05B6B18470346DB6D002083ED090AC3ED2C
S315000005C00A0A70474379002B4AD04FF0000C9FED82
S315000005D0254ADFED254A9FED255ADFED255A70B5F0
S315000005E013790CF1010E06EE903A8368547913F8EC
S315000005F00C5013F80E30967803EB052304FA83F3B8
S3150000060007EE903AF8EEE66A07EE106AD378F8EE4F
S31500000610E77A06EE103AB8EE477A76EE846AB8EED6
S31500000620C66A27EE057A67EEA67A37EE067A77EE81
S31500000630E47A67EE677A87EEA57AFCEEC77A17EE5C
S31500000640903AC3F3072501F80C5001F80E304379B0
S315000006500CF102045FFA84FC6345C1D8002070BD2A
S3150000066000207047000020440000FA480000804344
S3150000067000803B4B2DE9F84391461F4B0268054627
S315000006809A4288464FF005074FF000042CD1A86D1A
S315000006904A4683684146DB6800689847064640B983
S315000006A0154B2A689A420FD195F85230002B18BF85
S315000006B012263046BDE8F883013401212846A4B24B
S315000006C000F0A2FB642C13D895F85030002BF3D021
S315000006D0094B2A689A42E7D095F85230002BE3D0AE
S315000006E0013FBFB2002FDFD0002385F85030CEE7A0
S315000006F014263046BDE8F883444F4D5A01469323ED
S31500000700022221F8043FFFF7B5BF00BF022210B452
S315000007109324C16D80F84820896904714C6A011DD3
S3150000072094F800C080F805C05DF8044BFFF7A2BF3F
S3150000073010B50446836D9A68186853689847236E07
S3150000074013B1204600F082FB0020206010BD00BFE0
S315000007502DE9F04184B001AF87E80E00214B026815
S3150000076005469A424FF005084FF0000430D197E84D
S315000007700E00A86D866800683669B047064640B91F
S31500000780184B2A689A4210D195F85230002B18BFA0
S315000007901226304604B0BDE8F08101340121284616
S315000007A0A4B200F031FB642C16D895F85030002B1B
S315000007B0F3D00C4B2A689A42E6D095F85230002BBB
S315000007C0E2D008F1FF381FFA88F8B8F1000FDBD045
S315000007D0002385F85030CAE71426304604B0BDE839
S315000007E0F08100BF444F4D5A90F84820012A01D0AD
S315000007F00F48704784B05FFA82FC8DF80CC04FF04A
S31500000800020C02460291C16D80F848C08B69596A94
S3150000081091F8241002F8441F5B6A019293F8253080
S315000008208DF80D3004AB13E90E0004B0FFF790BF4E
S315000008300200030003460121B72240F2011C84B0E6
S3150000084080F8471003F8442F011D0193ADF80CC042
S31500000850029104AB13E90E0004B0FFF779BF00BFA5
S315000008602DE9F04F416504460B688946C9680022A8
S3150000087008460225A3658DB00091D9F80410C4E995
S315000008801701D9F808106166D9F81010A166D9F8D1
S31500000890141084F84620E16684F8485084F847200E
S315000008A09A68D3E9000112689047834600284AD126
S315000008B0226E22B1204600F0AFFA002842D1E26D46
S315000008C0D2E9055110690D61158908628D8112788A
S315000008D0022A3CD030304862E26DCDF80C90936924
S315000008E04FF0930A0293231D994601931FE0264673
S315000008F06FF06B0340F2011806F8443F099708961B
S31500000900ADF82880204695E80E00FFF721FFC8B90C
S31500000910C821204600F078FA0BF1010B90B99DF939
S315000009201430002B15DABBF57A7F00F0AE81022277
S3150000093049462046A4F804A0FFF79CFE05AF08AD83
S315000009400028D4D0834658460DB0BDE8F08F6030FD
S31500000950C1E7BBF57A7FDDF80C9000F09681019B2C
S315000009600896099340F20123ADF8283084F8440034
S3150000097095E80E002046FFF7EBFE83460028E2D1FD
S31500000980A388029A5BBA92899BB29A4202D04FF030
S31500000990060BD8E706238DF829302023029A84F81F
S315000009A04430531C0993204695E80E00FFF7D0FE0D
S315000009B083460028C7D12623029A84F84430536A16
S315000009C0126993F82C3009928DF82930204695E863
S315000009D00E00FFF7BDFE83460028B4D1B723E26DB3
S315000009E00890D2F818A0019AADF81C8005960692D8
S315000009F0C5E90100E86084F84430204697E80E0017
S31500000A00FFF7A6FE834600289DD1DAF82080294606
S31500000A1040460AF10102FFF7D5FD8346002892D130
S31500000A2098F804302371DAF820305A794AB1012354
S31500000A3011F801CB581C234483F804C0C3B29A4270
S31500000A40F6D2204601990132FFF714FE83460028AC
S31500000A507FF479AFDAF820301B7B2371DAF8203087
S31500000A605A7B1969012342B111F801CB581C234462
S31500000A7083F804C0C3B29A42F6D2204601990132E5
S31500000A80FFF7F8FD834600287FF45DAFDAF82030E3
S31500000A901B7D2371DAF820305A7D9969012342B112
S31500000AA011F801CB581C234483F804C0C3B29A4200
S31500000AB0F6D2204601990132FFF7DCFD8346002875
S31500000AC07FF441AFDAF820301B7F2371DAF820304B
S31500000AD05A7F196A012342B111F801CB581C2344ED
S31500000AE083F804C0C3B29A42F6D220460199013275
S31500000AF0FFF7C0FD834600287FF425AF226E0AB1BA
S31500000B0084F8510093232371DAF8203002221B78EF
S31500000B10204601996371FFF7ADFD834600287FF4F7
S31500000B2012AF236E002B00F0B38094F85130002BE7
S31500000B30FBD0002384F851304FF00108DAF820305A
S31500000B40204693F82430059684F84430019B8DF8AE
S31500000B501C800693DAF8203093F825308DF81D3086
S31500000B6097E80E00FFF7F4FD834600287FF4EBAE0E
S31500000B70A38808905BBAAAF80A30E388C5E90100A1
S31500000B805BBAAAF80830E36DE8609E692946776A81
S31500000B9006EB08023846FFF715FD834600287FF46A
S31500000BA0D2AE3B792371736A5A7952B115F8011B9B
S31500000BB008F10103A04488F804105FFA83F842455F
S31500000BC0F4D2204601990132FFF754FD83460028EE
S31500000BD07FF4B9AE736A1B7B2371736A5A7B1969FA
S31500000BE001233AB111F8015B581C23441D71C3B2AD
S31500000BF09A42F7D2204601990132FFF73BFD834620
S31500000C0000287FF4A0AE736A1B7D2371736A5A7D38
S31500000C10996901233AB111F8015B581C23441D71EF
S31500000C20C3B29A42F7D2204601990132FFF722FD5C
S31500000C30834600287FF487AE736A1B7F2371736A2D
S31500000C405A7F196A01233AB111F8015B581C2344F3
S31500000C501D71C3B29A42F7D2204601990132FFF7BD
S31500000C6009FD834600287FF46EAE009B4946DB688B
S31500000C7020461B689847834600287FF464AE584692
S31500000C80144A22600DB0BDE8F08F4FF0140B5AE6FF
S31500000C904FF094080BE03221204600F0B5F800280A
S31500000CA07FF450AE9DF91330002BBFF645AF0DF122
S31500000CB01303069340F201130596ADF81C30204647
S31500000CC097E80E0084F84480FFF742FD0028E2D042
S31500000CD0834638E6444F4D5A03464FF0020C012135
S31500000CE0942200B540F2011E85B080F848C080F815
S31500000CF0461003F8442F00F145010193ADF80CE0CE
S31500000D00029104AB13E90E0005B05DF804EBFFF7A2
S31500000D101FBD00BF30B503680279D96D586E83B028
S31500000D208C69009062B98DF804202A481D688542B6
S31500000D3018D0012183F8501083F8522003B030BD3B
S31500000D4006228DF80420234918688842F1D193F8C9
S31500000D50462093F847209B6E002BEFD068469847B5
S31500000D6003B030BD93F84620C2B1087893F8452009
S31500000D700C2827D841F22201C140CD0722D5616A4D
S31500000D8002F01F02497F4908013991421CD0022214
S31500000D908DF80420002283F84620DCE793F84720EC
S31500000DA0002AD8D01A79510608D4120644BF032265
S31500000DB08DF80420002283F84720CCE704228DF822
S31500000DC00420F7E71006E2D401228DF8042083F808
S31500000DD04820DFE7444F4D5A03681A681AB90122C2
S31500000DE083F851207047012200B5586ED96E83B042
S31500000DF000908DF8042083F8482009B1684688479A
S31500000E0003B05DF804FB00BF08B508464FF47A71DD
S31500000E1001F030FB002008BD70B5046E0546D4E92C
S31500000E20011320681B68984768B9A16803462A46DB
S31500000E302068CD680449A84728B9A36820685B687C
S31500000E40BDE87040184770BDD90D000008B5036EA7
S31500000E509A68186813699847002008BD034600225F
S31500000E6030B419604D68064C5D608D6810469D6013
S31500000E700D69DD61C9681A761962DC6030BC70479D
S31500000E8021332C3203460022596810464A60DA6044
S31500000E90704700BF00F02AB800F04AB884B00DF1E0
S31500000EA0040C8CE80E009CE80E0004B000F058B864
S31500000EB043685A68824217D070B59D688668AB68E9
S31500000EC00446327B1B69B1682868984758B962683E
S31500000ED003465460A96822464C692868A446F1690D
S31500000EE0BDE87040604770BD002070472DE9F041B5
S31500000EF0436804460E461746D3F80880FFF7D8FF26
S31500000F00A0B9227E0546002A03461ABF3D46304652
S31500000F10002025616061D8F808403A466468314689
S31500000F20A446D8F80000BDE8F0416047BDE8F0816E
S31500000F302DE9F041436804460F4615469E68FFF7C3
S31500000F40B7FF58B9C4E904000346B0682A46846866
S31500000F503946A4463068BDE8F0416047BDE8F081F7
S31500000F6030B585B004AC04E90E00436804469D68BC
S31500000F70FFF79EFF80B9029A9DF80D300199C4E9EA
S31500000F800432AA68012394682868A4469DF80C20B8
S31500000F9005B0BDE83040604705B030BD70B50468A7
S31500000FA003796268216A023B82B0012B9268009144
S31500000FB016D8002561698DF80450C1B19368106890
S31500000FC05E6822692B46B047C4E9045530B1032256
S31500000FD0E3698DF804200BB16846984702B070BDEE
S31500000FE093681068DB68984703238DF80430E3693B
S31500000FF0002BF1D102B070BD10B4046AA37803F0DF
S315000010007B03A3708378046A03F00303D21A0B44AC
S31500001010C0E90332A37843F08003A370837803F01A
S315000010200303022B06D0036A0A780020DA705DF803
S31500001030044B70470B88026A43F47E43D381002039
S315000010405DF8044B704700BFF0B5846A85B005466D
S315000010500F4694466E46B4B194E80F0086E80F003A
S31500001060EB6920461B78A760236084F804C0EB6A0E
S31500001070E3606B6A9847AC6A1CB196E80F0084E897
S315000010800F0005B0F0BD3446EAE700BF0346002274
S315000010902DE9F041012508781A7000F5800000F569
S315000010A08C500002C3E907104869D14C58628E691A
S315000010B09878C3E90A2665F301009870487890424B
S315000010C014BF2E460226987866F30100987091F9AF
S315000010D00BC091F80AE04FEA5C100CF01F062030B6
S315000010E005FA06F644F82060BFF34F8FBFF36F8F03
S315000010F0C0480CF1C00650F8267062F3104740F85D
S31500001100267050F82660BC4E4FEA0E1E04EB0C0704
S315000011105FFA8EFE87F800E346F82C3091F905C099
S3150000112091F804E04FEA5C170CF01F08203705FA27
S3150000113008F844F82780BFF34F8FBFF36F8F0CF189
S31500001140C00750F8278062F3104840F8278050F80F
S3150000115027704FEA0E1E04EB0C075FFA8EFE87F827
S3150000116000E346F82C3091F907C091F806E04FEA03
S315000011705C170CF01F08203705FA08F844F827809A
S31500001180BFF34F8FBFF36F8F0CF1C00750F8278066
S3150000119062F3104840F8278050F827704FEA0E1E79
S315000011A004EB0C075FFA8EFE87F800E346F82C3056
S315000011B091F909C091F808E04FEA5C170CF01F0896
S315000011C0203705FA08F844F82780BFF34F8FBFF39E
S315000011D06F8F0CF1C00750F8278062F3104840F873
S315000011E0278050F827004FEA0E10C0B2644484F8F6
S315000011F0000346F82C30EFF3108685F310884FF085
S3150000120000450C787D48E540446824EA05044460BE
S31500001210406886F3108840F2F9301C6AA2701C6A96
S3150000122022711C6A62721C6AA2721C6AE2721C6AD1
S3150000123062830A7820FA02F2D00702D540201A6AA1
S31500001240D074062440F2F932186A04770878C2404E
S31500001250D20703D54FF478401A6A9082CA78487844
S315000012608C78D200032842EA041200F0DA800028C3
S315000012700CBFE220F2201C6AD2B222701A6A907168
S31500001280C869027B082A00F0C8801C6A520002F076
S3150000129002026273002542788478D201640104F068
S315000012A02004D2B222431C6A25720478023C012C27
S315000012B01C6A40F2A780D2B2E27140681A6A84784A
S315000012C054704578147865F301041470C4789474E6
S315000012D0D479007804F0A30400F05C002043D071B8
S315000012E00020C3E90300C3E90500DC69414A94F91B
S315000012F00540CD6904F1C00152F8216095F800C09F
S3150000130060F3104642F821600CF0030C52F82110ED
S31500001310BFF35F8F4FF0010E6109890004F01F04CF
S3150000132001F1604101F561410EFA04F4C1F8804112
S315000013300C60D96991F90B4004F1C00152F82160A3
S3150000134060F3104642F8216052F82110BFF35F8F18
S315000013506109890004F01F0401F160410EFA04F4EA
S3150000136001F56141C1F880410C60D96991F90740E6
S3150000137004F1C00152F8216060F3104642F8216082
S3150000138052F82110BFF35F8F6109890004F01F0432
S3150000139001F160410EFA04F401F56141C1F88041A2
S315000013A00C60D96991F9091001F1C00452F8246062
S315000013B060F3104642F8246052F82420BFF35F8F92
S315000013C04A09920001F01F0102F160420EFA01F192
S315000013D002F56142C2F8801111601A6A4CF0700C75
S315000013E082F802C06989064A19815A60BDE8F0810F
S315000013F000E100E000600040B0030020004008402B
S3150000140055494353FF2565700078022808BF42F00E
S315000014101002186AD2B2C27162E70A241A6A5473B9
S3150000142038E7F22042F0400225E700BFEFF30383DE
S31500001430103B1F4A5BB203F1C00152F8210020F4B1
S31500001440803042F8210052F821201A4A52F823002F
S31500001450C3691B6983B1036903B17047026A00213E
S31500001460937803F07F0343F004039370436AC160EB
S31500001470C3B18022FFF7E8BD0369026A002BEED0F4
S315000014808378C16803F00303022B0CD00B78D3706A
S315000014908278D0E9031302F003029B1A1144C0E9D3
S315000014A00313D9E770470B8843F47E43D381EFE7F4
S315000014B000600040B003002010B582B0EFF3038354
S315000014C0103B1F4A5BB203F1C00152F8210020F421
S315000014D0803042F8210052F821201A4A52F823405F
S315000014E0A27802F00303022B236A0CBF198A5979EA
S315000014F0A3690CBFC1F30801C9B2019143B9636A7C
S31500001500B3B10422204602B0BDE81040FFF79CBDEF
S3150000151002F0030201A9606901F0BCFED4E90521CD
S31500001520A37803F003031A44C91AC4E9052109B1D3
S3150000153002B010BD636A002BFAD00122E2E700BFB9
S3150000154000600040B003002010B5EFF303830E4A9D
S31500001550103B5CB252F82400026A937803F07B03D6
S315000015609370436A1BB102220021FFF76DFD074A03
S3150000157004F1C00352F8231021F4803142F82310FD
S3150000158052F8233010BD00BFB003002000600040B9
S3150000159010B5EFF303831A4A103B5CB252F82400ED
S315000015A0837803F00303022B036A0CBF198A597967
S315000015B093F804C00CBFC1F30801C9B21CF0100FA8
S315000015C00CF0380206D093F81CC01CF0010F08BFBF
S315000015D042F0400293F804C00CF0C70C83F804C034
S315000015E0436A0BB1FFF730FD064A04F1C00352F817
S315000015F0231021F4803142F8231052F8233010BD15
S31500001600B0030020006000402DE9F84F0388DBB1ED
S3150000161080464FF000094FF0010BDFF884A000244C
S315000016201E4D4FEAC907D8F8043035F8022BD919F0
S31500001630898891420AD00134032CF4D1B8F80030DD
S3150000164009F101094B45EAD8BDE8F88FDB590BFAD9
S3150000165004F603F0B853B3F1807FF6B29AF8BB34C0
S315000016600ED03342E7D0012000F0D0FF9AF8BB3409
S31500001670012023EA06038AF8BB3400F097FFDAE775
S315000016803342D8D1012000F0C1FF9AF8BB340120C3
S3150000169033438AF8BB3400F089FFCCE7145B0000C3
S315000016A000E00140F8B50646FFF7AEFFEFF3108203
S315000016B0012383F31088234F3B681BB92249CB7063
S315000016C04023CB703B6801333B6082F3108833883C
S315000016D023B300211D4D08E01B01134445F82340A8
S315000016E0328801318BB29A4218D9736853F8314067
S315000016F003EBC1029288E0034FEA1223D2B2EBD584
S3150000170002EB031055F820E024F4803C2EF4803ED2
S3150000171045F820E01B0145F820C0DEE7EFF3108214
S31500001720012383F310883B6813B13B68013B3B60A0
S315000017303B681BB980200449CB70C87082F31088BF
S31500001740F8BD00BFAC030020000D084000080840AB
S3150000175008B5034B03600846FFF7A4FF002008BD49
S3150000176054524F500346002059601A72704700BF0A
S3150000177084460020CCE90E32CCF83410704700BF06
S315000017800346044ADB6800209B1AB3FA83F35B091D
S315000017900B7070474349495230B5836B83B004469A
S315000017A00A466D46A3B193E8030085E80300E16BA2
S315000017B01A7119601846636B9847A36B1BB195E8BD
S315000017C0030083E80300002384F82B3003B030BD08
S315000017D02B46ECE730B5424B83B01B6A0169019397
S315000017E0019B03F00F230193019A019D0B7C90F856
S315000017F02C4094B9C2F30322DBB2A2EB15629340EC
S315000018009B0804D1082003B030BD013BFAD04A78CA
S31500001810D209FAD1B323CB710169002390F82620AF
S31500001820846980F82720026880F82B30C46180F82C
S315000018302D3080F8283080F82E30036280F82F3063
S3150000184080F83030546A227894F801E0012A14BFF7
S315000018504FF0040C4FF0050C6279120142EA4E0279
S3150000186094F806E042EACE124CEA0202D2B2CA70FC
S3150000187001690A7942F010020A7101690A7963F373
S31500001880C3020A7101690A7963F304120A710269D3
S31500001890E179137961F3C71313710269537943F040
S315000018A001035371036893F90F30002B07DB012204
S315000018B003F01F040B495B09A24041F82320BF2215
S315000018C00369DA7190F82C302BB1002380F82C30A4
S315000018D0002003B030BD022203695A70F8E700BF4A
S315000018E000E0014000E100E090F808C0C0E9051200
S315000018F0BCF1010F80F82A3008D10022436880F835
S3150000190026C05B0080F8243080F82520002380F86C
S315000019102930FFF75FBF00BF90F808C0C0E9051285
S31500001920BCF1010F80F82A300AD10022436880F802
S3150000193026C05B0043F0010380F8243080F82520A0
S31500001940012380F82930FFF745BF00BF2DE9F0439A
S315000019504FF01F085F27DF260569DFF8B49185F889
S31500001960008005694FF0000C2F7005694FF0B30E2B
S315000019702E700568634A6E6A05693679624C46F0D0
S31500001980E0062E740568614B6E6A0569F67846F0C6
S31500001990E0066E7405686E6A0569B678360106F06B
S315000019A0700646F00806AE7005686E6A05693778F7
S315000019B0012F777814BF0426052646EA4706F6B2B5
S315000019C0EE7005686E6805694E4514BF7726F726E2
S315000019D06E71056985F806C0056985F807E04E7BD6
S315000019E091F9115036015719F6B287F8006344F899
S315000019F0250005F1C00653F826706CF3104743F82E
S31500001A00267053F82660BFF35F8F4FF0010E6E0904
S31500001A10B60005EA080506F1604606F561460EFAC7
S31500001A2005F5C6F8805135604E7B91F90F503601A9
S31500001A305719F6B287F8006344F8250005F1C00689
S31500001A4053F826706CF3104743F8267053F8266057
S31500001A50BFF35F8F6E09B60005EA080506F160461A
S31500001A600EFA05F506F56146C6F8805135604E7BDF
S31500001A7091F9105036015719F6B287F8006344F809
S31500001A80250005F1C00653F826706CF3104743F89D
S31500001A90267053F82660BFF35F8F6E09B60005EA1D
S31500001AA0080506F160460EFA05F506F56146C6F824
S31500001AB0805135604D7B91F90E102D010A44EDB22F
S31500001AC082F8005344F8210001F1C00253F8224085
S31500001AD06CF3104443F8224053F82230BFF35F8F73
S31500001AE04B099B0001EA080103F160430EFA01F17C
S31500001AF003F56143C3F8801119609F2203691A70C8
S31500001B00BDE8F08300E100E0B00300200060004083
S31500001B1040420F0070B500250A78016002F5800288
S31500001B2002F51F62120202618A6842600A7B027233
S31500001B30CA6942630A6AC0E90E52EFF3108C0122A9
S31500001B4082F310880B78C3F109039A400C4B5E6848
S31500001B5026EA02025A605B688CF31088FFF7F6FEED
S31500001B60C0E90755074B80F82950456180F82A508F
S31500001B70856180F82B50C36080F82C50284670BDD4
S31500001B80004008404349495238B500250369DD71D4
S31500001B900168FFF7DBFEB322836990F82610036223
S31500001BA0036980F82C50C56180F8281080F82A5007
S31500001BB0DA71284638BD00BF38B5002504460369EA
S31500001BC0DD710168FFF7C2FEB320012394F82620D9
S31500001BD084F82C5084F82820A269E56122622269E3
S31500001BE084F82A50D07122692849D5712268E560A7
S31500001BF092F91120500902F01F0203FA02F2203076
S31500001C0041F82020BFF34F8FBFF36F8F226892F900
S31500001C100E20500902F01F0203FA02F2203041F8AA
S31500001C202020BFF34F8FBFF36F8F226892F91020E9
S31500001C30500902F01F0203FA02F2203041F8202078
S31500001C40BFF34F8FBFF36F8F226892F90F205009B1
S31500001C5002F01F0203FA02F2203041F82020BFF3FF
S31500001C604F8FBFF36F8FEFF3108083F310882168D7
S31500001C70074A0978C1F109018B4051680B4353604B
S31500001C80536880F31088284638BD00BF00E100E0A5
S31500001C900040084010B582B0EFF30383103B5F4A63
S31500001CA05BB2C03352F8231021F4803142F823107E
S31500001CB052F82330EFF30383594A103B5BB252F8D4
S31500001CC0234094F82D305BBBA369022B22D9E3692C
S31500001CD0012B0ED12269137943F010031371226987
S31500001CE0137943F0080313712269137923F0100363
S31500001CF0137123685B6ADB79002B3ED101222369CD
S31500001D00DB7CDBB28DF807309DF8073084F82D2098
S31500001D1002B010BD2269137943F040031371D6E770
S31500001D20E369002BF4D02268526AD279FAB9032B00
S31500001D3017D0022B26D0012B34D02269236AD17CFE
S31500001D406269D154D4E907320132013BC4E9073252
S31500001D50002BDDD121690A7963F386120A7102B07C
S31500001D6010BD2269137943F040031371E5E705219D
S31500001D702046FFF711FDE369D9E705212046FFF765
S31500001D800BFDBBE72269137943F010031371226937
S31500001D90137943F0080313712269137923F01003B2
S31500001DA01371CAE794F82A2072B322681D4892F983
S31500001DB00F20510902F01F0203FA02F2203140F807
S31500001DC02120BFF34F8FBFF36F8F04202169CA799B
S31500001DD042F08002CA7121690A7942F010020A7142
S31500001DE021690A7922F008020A7121690A7922F02A
S31500001DF010020A712269507021694A7922F00102A3
S31500001E004A7184F82C3098E708212269537A03F046
S31500001E10F7035372236959708FE700BF00600040D3
S31500001E20B003002000E100E010B5EFF30383103BA0
S31500001E30424A5BB2C03352F8231021F4803142F893
S31500001E40231052F82330EFF303833D4A103B5BB275
S31500001E5052F8234094F82730002B3FD194F82930CC
S31500001E60002B3AD123685B6ADB792BB194F82B30CF
S31500001E7013B9236A002B5BD1E3692169002B40D19A
S31500001E80CB79C02223F08003CB71216901E0013AAE
S31500001E9002D0CB79DB09FAD12368284A93F91030AE
S31500001EA0C03352F8231021F4803142F8231052F83F
S31500001EB02330236893F91030002B09DB01215A09DE
S31500001EC0204803F01F03603201FA03F340F8223082
S31500001ED02269D37943F04003D37110BD94F82630BC
S31500001EE0032B1CD094F8242023699A7494F8282094
S31500001EF094F827300132013B84F8282084F82730F3
S31500001F0010BD236A6269D35C8B74D4E9073201324F
S31500001F10013BC4E90732002BDFD12169B0E794F811
S31500001F202830022BDED194F83030002BDAD110BDE8
S31500001F3005212046FFF730FC9EE700BF0060004009
S31500001F40B003002000E100E038B5EFF30383334A25
S31500001F50103B5BB252F8234023685B6ADB79002BA7
S31500001F6048D194F829301BB194F82730012B4FD073
S31500001F70E369DBB12169C023CA7922F04002CA7144
S31500001F80216901E0013B02D0CA795206FAD4EFF387
S31500001F900383103B224A5BB2C03352F8231021F46C
S31500001FA0803142F8231052F8233038BD94F82A20A5
S31500001FB02AB3012022681B4D92F90F20510902F025
S31500001FC01F02203100FA02F245F82120BFF34F8F9D
S31500001FD0BFF36F8F2169CA7942F08002CA7104216A
S31500001FE02269517021694A7963F300024A7184F8C3
S31500001FF02C00BFE705212046FFF7CEFBB1E70821FD
S315000020002269537A03F0F703537223695970B1E7D3
S3150000201094F83030002BADD0AAE700BFB003002003
S315000020200060004000E100E038B5EFF303834C4A5E
S31500002030103B5BB252F823000269537A517ADC06F0
S3150000204001F0E00151725FFA83FC03F003022BD525
S3150000205003695978490647D40024012580F82B5096
S31500002060DC710168FFF772FCB32290F8263080F825
S315000020702C4080F82830C46180F82A4003698469BE
S3150000208029460462DA71FFF787FBEFF30383103BFF
S31500002090344A5BB2C03352F8231021F4803142F83F
S315000020A0231052F8233038BD002A56D11CF0080FF1
S315000020B00ED090F82B30002B3ED1B32290F8291089
S315000020C00369C1F10301C9B2DA71FFF765FBDCE709
S315000020D090F82C200CF004032AB3002BD5D090F8EE
S315000020E02B30002B37D1E8E7002AB5D15A78C2F356
S315000020F080115206DAD5082280F82B105A70036830
S3150000210001695A6A94791378527943EAC41343EA07
S31500002110021343F00203DBB2CB700269537943F03A
S3150000212001035371B1E7002BAFD003685B6ADB791B
S31500002130002BAAD00421C8E70023B32190F826502B
S315000021408469026980F82C3080F828500462C361E3
S3150000215080F82A30D1710121B7E703697CE700BF17
S31500002160B00300200060004070B40025034691F9DA
S3150000217002201A4C0271920002F1804202F5C0421E
S31500002180D2F80063C2F800538A688260CA68C260E7
S315000021900878587125540D79CA7842EA05124D79A6
S315000021A042EAC512D2B2225493F90420C03244F84E
S315000021B0226093F9040000280BDB4A78084C1201D0
S315000021C000F16041D2B201F5614181F8002344F883
S315000021D02030044A00201A6070BC7047006000403E
S315000021E0B00300205543490090F904200E4B02F13C
S315000021F0C00153F8210020F4803043F8210053F841
S315000022002130BFF35F8F012153099B0002F01F02AB
S3150000221003F1604303F5614301FA02F2C3F880213A
S315000022201A600020704700BF00600040012110B412
S3150000223090F90430084C5A0903F01F03994002F143
S31500002240200344F82310BFF34F8FBFF36F8F002096
S315000022505DF8044B704700BF00E100E00346002034
S31500002260C3E90212704700BF90F904200346002A12
S3150000227019DB012010B451090C4C02F01F02203169
S3150000228000FA02F244F82120BFF34F8FBFF36F8F9D
S315000022900020074A93F9041042F821000020186034
S315000022A05DF8044B704700201860704700E100E0BD
S315000022B0B003002010B582B0EFF30384184B103C36
S315000022C064B253F82410174A4879135C03F00303E9
S315000022D0032B12D0C03452F8243023F4803342F852
S315000022E0243052F824308B682BB14879CA68CDE97E
S315000022F000206846984702B010BD8B6823B1CA68B3
S31500002300CDE9002068469847064BC03453F8242090
S3150000231022F4803243F8242053F8243002B010BD52
S31500002320B003002000600040064B074993F82600E2
S315000023301A6A51F82030C2F302620449D3400B6096
S31500002340704700BF00E001406C0100203C05002002
S315000023504AF2035001232F492F4A2DE9F043A1F8F1
S31500002360FE03A2F80431B2F804319BB2002BFAD175
S3150000237001244FF4004529482949C0E90333856003
S31500002380A2F80041274A8C600C600260264A01F5DB
S31500002390B83191F8265042600A6A81F8804481F883
S315000023A03630224B436191F83C30DA07FBD542F2D6
S315000023B011740023174A0C8581F82A3092F83C30B4
S315000023C09B06FBD505244FF003090123F1254FF0A9
S315000023D0F00E4FF4254CDFF84080154F88F81C911D
S315000023E0176282F8264092F82640124950F82400D7
S315000023F0146A114EC4F30264E04030600D730B7230
S3150000240081F80CE082F8303082F85230A2F8FEC330
S31500002410BDE8F08300E0014000C001406C010020EF
S3150000242000700040002D310100127A0000C2EB0B53
S3150000243021120120002000403C05002010B5002498
S31500002440064B012083F8284000F0E0F8044B0120F9
S3150000245083F8BB44BDE8104000F0A8B8003008403F
S3150000246000E0014000BEFEE7A0F101000028FBD11C
S31500002470704700BF4FF47A7310B400FB01F1114CA2
S31500002480114A2468B2FBF4F2A1FB03043CB9B0FB89
S31500002490F2F0800860B15DF8044BFFF7E5BF9200EB
S315000024A0B1FBF2F1A1FB03132BB908460028F2D1C8
S315000024B05DF8044B70474FF0FF3C5DF8044B6046F7
S315000024C0FFF7D2BF3C05002000CA9A3B70B5002436
S315000024D00B4B0C4EB3F82021B3F84051ADB215406A
S315000024E025FA04F3DB0704D556F82430E0B203B12D
S315000024F098470134102CF3D1014BA3F8305170BD2D
S31500002500006000406C03002030B5032085B000F069
S315000025107DF86FF0FF054FF0FF31204C0023224677
S315000025204FF0010E1E488564CDE90111039104F1B7
S31500002530C00532F8020F590960B104A800EB810109
S3150000254051F80C0C03F01F0C0EFA0CFC20EA0C00E0
S3150000255041F80C0C954203F10103EAD10199114BA4
S315000025600F4A03201167C3F8801202995167C3F816
S31500002570841203999167C3F8881200F017F80023B4
S31500002580094834F8022F03F1C00101330AB140F8BB
S315000025902120A542F5D105B030BD00BFB2590000DB
S315000025A00080004000E100E000600040EFF3108191
S315000025B0012383F31088124B33F8102092B22AB10C
S315000025C033F81020013A92B223F8102033F8103075
S315000025D09BB293B910B40B4A0B4CB2F8FE3334F8E5
S315000025E010009BB243F4254323EA0003A2F8FE330E
S315000025F081F310885DF8044B704781F310887047AB
S315000026003005002000E00140505B000030B4EFF3DD
S315000026101081012383F310880E4A32F810309BB2E2
S315000026206BB90D4C0D4DB4F8FE3335F810C09BB2A6
S3150000263043EA0C0343F425439BB2A4F8FE3332F875
S31500002640103001339BB222F8103081F3108830BC71
S31500002650704700BF3005002000E00140505B0000DD
S3150000266008B50C4A0346106840B103330A4923F003
S31500002670030303448B4205D8136008BD0749084687
S315000026801160F2E700F0FEFD0C2203461A604FF0DF
S31500002690FF3008BD38050020880600208806002087
S315000026A000BE704708B500F003F8FDF70BFFFEE724
S315000026B04FF4700270B52B4B2B4CC3F888200020CA
S315000026C09C60FDF7E9FEFFF743FE0120FDF7E4FEFF
S315000026D02368A3F5806383F30A882448244A0021EB
S315000026E0121A00F0C7FD2348234A2449121A00F0A3
S315000026F0D1FD234D234B5B1B002B07DD00249E10D1
S3150000270055F8043B01349847A642F9DCFFF70CFE66
S31500002710FFF794FE0320FFF779FF00234FF6FF70C3
S31500002720194903F1080201330C2B21F81200F8D1E4
S3150000273000240320FFF73AFF0320FFF767FF134B40
S3150000274003205C609C60DC601C61FFF72FFF0220A9
S31500002750FDF7A2FEFFF7D8FE2046BDE8704000F068
S3150000276017B800BF00ED00E000000000880100205F
S3150000277088060020000000206C010020FC5B0000A1
S315000027806401002068010020000D084000000E4092
S31500002790704700BF42F210338A899A427AD170B5E7
S315000027A02DED028B0B69B7EE087A1A78DFED3C4AFD
S315000027B007EE902AF8EEE77A67EE877AB7EE005AC8
S315000027C087EEA47AC5EE077AC0ED0C7A5A789B7824
S315000027D007EE902ADFED335A07EE103AF8EE677AE5
S315000027E0B8EEC77A67EEA57A9FED2F6A77EE877AFD
S315000027F0DFED2E6A67EE867A87EEA67AB5EEC07AA8
S31500002800F1EE10FA04464FF0000580ED0D7A44D93A
S31500002810B1EE408ADFED267A0026C8EE277A254BF0
S3150000282080ED000A4361067617EE900A00F0D2FBAF
S3150000283041EC100B01F094F9002053EC102B1E49CB
S3150000284000F068FA00F0A6FCDFED1C7AC8EE277AE5
S31500002850A060256117EE900AE56125626562A562B2
S31500002860E562A68100F0B6FB41EC100B01F078F9A9
S31500002870002053EC102B104900F04CFA00F08AFCB3
S31500002880606030460E4BA563E56323646564BDEC6A
S31500002890028B70BD6FF01F0070476FF02000F6E7E7
S315000028A000007F43000080438096984A00FF7F47E0
S315000028B0000096430000C8420000F03F000020429E
S315000028C00000C843FFF766BF38B52DED068B81EDD6
S315000028D0000A037E0D46FF2B044690ED059A18D09C
S315000028E00133DBB20F2B037613D800230021C84A2D
S315000028F080ED040AA181012085ED019ABDEC068BCD
S315000029002B61EB60AB606A61A363E363636422647B
S3150000291038BD94ED047A94ED026A70EE477A67EE5C
S31500002920867A77EE877ADFEDBB6A30EE677AB4EEA9
S31500002930E67AF1EE10FA00F3FC809FEDB76AB4EE8A
S31500002940C67AF1EE10FA44BF70EE267A30EE677A58
S31500002950DFEDB26AB4EEE67AF1EE10FAC4ED047A6F
S3150000296000F3EC80DFEDAE7AB4EEE77AF1EE10FA22
S3150000297000F1E480A389002B40F03581DFEDA97AD0
S31500002980B4EEE70AF1EE10FA07D5DFEDA77AB4EE5A
S31500002990E70AF1EE10FA00F31681F7EE007A87EEF9
S315000029A0897A87EE808A38EE478AB5EEC08AF1EEDC
S315000029B010FA206B48BF9FED9D8A00F00BFBD4ED0B
S315000029C00D7A68EE277A41EC1A0B17EE900A00F0A2
S315000029D001FBB0EE4A1AF0EE6A1A41EC100B01F058
S315000029E00FF9002251EC100B914B02F025FB00F081
S315000029F0D1FBDFED907A08EE100AB4EEE78AF1EE2D
S31500002A0010FA00F1BB8000F0E5FA9FED8B7A41ECFD
S31500002A10100B68EE078A9FED781B01F0F1F878A39A
S31500002A20D3E9002351EC100B02F006FB00F0B2FBD9
S31500002A30D4ED075AD4ED017ADFED803A94ED005AD1
S31500002A4038EEE57A9FED7E4A27EE277A25EE235A61
S31500002A50F1EE004A94ED0A6AC5EE047A37EE257A5D
S31500002A6067EEA47A37EE466AF4EEC67AF1EE10FA0D
S31500002A7006EE900A40F1898094ED0B6A77EE657A4E
S31500002A8077EE867AC4ED0B7A77EE677A9FED6D5A0C
S31500002A909FED6D6A67EE857AF4EEC67AF1EE10FA6E
S31500002AA05CD59FED6A5AF0EE467A37EE456A84EDBC
S31500002AB00B6AD4ED0E3A94ED0F4AD4ED114A94ED1B
S31500002AC0105A84ED077AB5EE006A38EEC47A38EE0D
S31500002AD0638A76EEE46A77EEC57A28EE068A27EEF2
S31500002AE0067A66EE866A67EE867A38EE238A37EECF
S31500002AF0047A76EEA46A77EE857A626A236A84EDB2
S31500002B000E8AC4ED085A84ED0F7AC4ED116AC4ED3D
S31500002B10107AA2626362002085ED048A85ED019A2F
S31500002B20BDEC068B85ED037AC5ED026AC5ED057A27
S31500002B3038BD70EE667A30EE677A09E7DFED416AF6
S31500002B4094ED007AC6EE877AFCEEE77A17EE903AB5
S31500002B509BB2A381002B7FF420AF0FE79FED3C6A69
S31500002B60F4EEC67AF1EE10FAA3DD9FED3A6A37EE7F
S31500002B70466AF0EE457A84ED0B6A9AE7DFED368A0F
S31500002B809FED210BB0EE678A45E7F1EE677AF4EE2A
S31500002B90C67AF1EE10FA11DDF7EE007AF4EEE75A96
S31500002BA0F1EE10FA22DD94ED0B6A27EE066AC6EE08
S31500002BB0257AC4ED0B7A77EE677A67E7D4ED0B7A60
S31500002BC077EE677A62E7B4EEC90AF1EE10FA70EEB4
S31500002BD0497A44BF9FED217A67EE877A39EE279AC4
S31500002BE084ED059AD9E6013B9BB2B2E70023F0EEED
S31500002BF0477AE3624AE700BF000000000000D03FCA
S31500002C000000006066660A4000000060EF44813FF5
S31500002C100000C84300504348005043C800409C464B
S31500002C2000409CC60024F44900401C4600000000F9
S31500002C30000024407B270A3CD7A3F03F9A99993E8F
S31500002C4000007042000096430000C843ABAAAA3FAA
S31500002C5000409C45555585416EDD813C72211536F7
S31500002C6038B52DED028B12881D4652BA4B8992B2A9
S31500002C70934204464878098904D291420ED89FEDC2
S31500002C80208A01E09FED1F8A2946B0EE480ABDEC76
S31500002C90028B2046BDE83840FFF716BE07EE900AC5
S31500002CA0D31AF8EEE76A9FED186A07EE903A891A8A
S31500002CB007EE101A66EE866AF8EEE77AB8EEC77A7D
S31500002CC066EEA77A87EE878A18EE100A00F082F978
S31500002CD009A3D3E9002300F053FA0028CFD1DFED92
S31500002CE0097AB4EE678AF1EE10FA48BFB0EE678A49
S31500002CF0CAE700BFAFF30080000000A2941A6D423D
S31500002D00A5D468530000C84200007A4481F000410F
S31500002D1002E000BF83F0004330B54FEA41044FEABA
S31500002D20430594EA050F08BF90EA020F1FBF54EA55
S31500002D30000C55EA020C7FEA645C7FEA655C00F0F1
S31500002D40E2804FEA5454D4EB5555B8BF6D420CDDC2
S31500002D502C4480EA020281EA030382EA000083EA45
S31500002D60010180EA020281EA0303362D88BF30BDE5
S31500002D7011F0004F4FEA01314FF4801C4CEA11313B
S31500002D8002D0404261EB410113F0004F4FEA03339A
S31500002D904CEA133302D0524263EB430394EA050F25
S31500002DA000F0A780A4F10104D5F1200E0DDB02FA94
S31500002DB00EFC22FA05F2801841F1000103FA0EF228
S31500002DC0801843FA05F359410EE0A5F120050EF1EE
S31500002DD0200E012A03FA0EFC28BF4CF0020C43FA1F
S31500002DE005F3C01851EBE37101F0004507D54FF02C
S31500002DF0000EDCF1000C7EEB00006EEB0101B1F57C
S31500002E00801F1BD3B1F5001F0CD349085FEA3000C1
S31500002E104FEA3C0C04F101044FEA445212F5800FCC
S31500002E2080F09A80BCF1004F08BF5FEA500C50F169
S31500002E30000041EB045141EA050130BD5FEA4C0C4C
S31500002E40404141EB0101013C28BFB1F5801FE9D2A9
S31500002E5091F0000F04BF01460020B1FA81F308BFCC
S31500002E602033A3F10B03B3F120020CDA0C3208DD98
S31500002E7002F1140CC2F10C0201FA0CF021FA02F173
S31500002E800CE002F11402D8BFC2F1200C01FA02F1E3
S31500002E9020FA0CFCDCBF41EA0C019040E41AA2BF08
S31500002EA001EB0451294330BD6FEA04041F3C1CDAD0
S31500002EB00C340EDC04F11404C4F1200220FA04F0F0
S31500002EC001FA02F340EA030021FA04F345EA03019A
S31500002ED030BDC4F10C04C4F1200220FA02F001FA5C
S31500002EE004F340EA0300294630BD21FA04F02946DE
S31500002EF030BD94F0000F83F4801306BF81F4801177
S31500002F000134013D4EE77FEA645C18BF7FEA655CE9
S31500002F1029D094EA050F08BF90EA020F05D054EABB
S31500002F20000C04BF1946104630BD91EA030F1EBFC0
S31500002F300021002030BD5FEA545C05D140004941C4
S31500002F4028BF41F0004130BD14F580043CBF01F5B7
S31500002F50801130BD01F0004545F0FE4141F470019D
S31500002F604FF0000030BD7FEA645C1ABF1946104678
S31500002F707FEA655C1CBF0B46024650EA013406BF79
S31500002F8052EA033591EA030F41F4002130BD00BF38
S31500002F9090F0000F04BF0021704730B54FF48064F5
S31500002FA004F132044FF000054FF0000150E700BF76
S31500002FB090F0000F04BF0021704730B54FF48064D5
S31500002FC004F1320410F0004548BF40424FF00001C2
S31500002FD03EE700BF42004FEAE2014FEA31014FEA05
S31500002FE002701FBF12F07F4393F07F4F81F0605154
S31500002FF0704732F07F4208BF704793F07F4F04BF9F
S3150000300041F40021704730B54FF4607401F000457B
S3150000301021F000411CE700BF50EA010208BF7047DB
S3150000302030B54FF000050AE050EA010208BF7047CC
S3150000303030B511F0004502D5404261EB41014FF435
S31500003040806404F132045FEA915C3FF4D8AE4FF03D
S3150000305003025FEADC0C18BF03325FEADC0C18BF20
S31500003060033202EBDC02C2F1200300FA03FC20FA71
S3150000307002F001FA03FE40EA0E0021FA02F11444BE
S31500003080BDE600BF4FF0FF3C06E000BF4FF0010C6D
S3150000309002E000BF4FF0010C4DF804CD4FEA410CA1
S315000030A07FEA6C5C4FEA430C18BF7FEA6C5C1BD06E
S315000030B001B050EA410C0CBF52EA430C91EA030FEF
S315000030C002BF90EA020F0020704710F1000F91EA4C
S315000030D0030F58BF994208BF90422CBFD8176FEA1A
S315000030E0E37040F0010070474FEA410C7FEA6C5CE8
S315000030F002D150EA013C07D14FEA430C7FEA6C5CEF
S31500003100D6D152EA033CD3D05DF8040B704700BF1A
S315000031108446104662468C461946634600E000BF68
S3150000312001B5FFF7B7FF002848BF10F1000F01BD3A
S315000031304DF808EDFFF7F4FF0CBF012000205DF805
S3150000314008FB00BF4DF808EDFFF7EAFF34BF01208A
S3150000315000205DF808FB00BF4DF808EDFFF7E0FF23
S3150000316094BF012000205DF808FB00BF4DF808ED74
S31500003170FFF7CEFF94BF012000205DF808FB00BFDB
S315000031804DF808EDFFF7C4FF34BF012000205DF8BD
S3150000319008FB00BF4FEA4102B2F1E04324BFB3F59A
S315000031A0001CDCF1FE5C0DD901F0004C4FEAC002B8
S315000031B04CEA5070B2F1004F40EB830008BF20F09C
S315000031C00100704711F0804F21D113F13872BCBF56
S315000031D001F00040704741F480114FEA5252C2F1AB
S315000031E01802C2F1200C10FA0CF320FA02F018BFF4
S315000031F040F001004FEAC1234FEAD32303FA0CFC47
S3150000320040EA0C0023FA02F34FEA4303CCE77FEAD5
S31500003210625307D150EA01331EBF4FF0FE4040F41F
S315000032204000704701F0004040F0FE4040F40000CE
S31500003230704700BF0EB400B59CB06FF000411DABE7
S3150000324002900690079104910848094953F8042B07
S31500003250059102A90068019300F086F9029B0022FD
S315000032601A701CB05DF804EB03B07047140100201F
S315000032700802FFFF02440346934200D1704703F859
S31500003280011BF9E7014B1868704700BF14010020C5
S31500003290704770470A44431E914200D1704710B5EB
S315000032A011F8014B914203F8014FF9D110BD0346C5
S315000032B013F8012B002AFBD1181A01387047FFFFBB
S315000032C038B50546002941D051F8043C0C1F002BA7
S315000032D0B8BFE41800F0E0F81D4A136833B963601C
S315000032E014602846BDE8384000F0DCB8A34208D98F
S315000032F0206821188B4201BF19685B680918216094
S31500003300EDE71A465B680BB1A342FAD9116850186B
S31500003310A0420BD120680144501811608342E0D1CD
S3150000332018685B68084453601060DAE702D90C231A
S315000033302B60D6E7206821188B4202BF19685B68AC
S315000033400918636008BF21605460CAE738BD00BF32
S315000033508406002070B50F4E0C460546316811B93B
S3150000336000F0A8FB30602146284600F0A3FB431C72
S3150000337003D14FF0FF34204670BDC41C24F0030473
S31500003380A042F8D0211A284600F094FB0130F2D171
S31500003390EFE700BF800600202DE9F843CD1C064666
S315000033A025F0030508350C2D38BF0C25002D01DB53
S315000033B0A94204D90C2333600020BDE8F883DFF866
S315000033C0D48000F069F8D8F800301C4644BB294682
S315000033D03046FFF7BFFF431C044658D1D8F80040DB
S315000033E02746002F43D1002C4BD023683946304660
S315000033F004EB030900F05EFB814542D121683046AB
S315000034006D1A2946FFF7A6FF01303AD023682B44F0
S315000034102360D8F800305A6862BBC8F800700FE025
S315000034202268521B20D40B2A17D96119A3422560A2
S3150000343018BF5960636808BFC8F8001062514B6036
S31500003440304600F02FF804F10B00231D20F0070092
S31500003450C21A1CBF1B1AA350AFE76268A3420CBF77
S31500003460C8F800205A60EBE723466468AEE73C469E
S315000034707F68B6E71A465B68A342FBD10023536018
S31500003480DEE70C233046336000F00CF894E7056065
S31500003490D6E700BF840600200148FFF7F9BE00BF4B
S315000034A07C0600200148FFF7F4BE00BF7C06002022
S315000034B02DE9F0471F468E6882460C46BE4290466E
S315000034C00B682DD8B1F90C2012F4906F26D06569DF
S315000034D0096905EB4505A3EB01097B1C05EBD575D1
S315000034E04B446D109D4238BF1D46530527D52946CE
S315000034F0FFF752FF064660B34A462169FFF7CAFE48
S31500003500A38923F4906343F08003A38126614E448C
S315000035106561A5EB090526603E46A560BE4200D959
S315000035203E4632464146206800F0AAFAA3680020CB
S315000035309B1BA360236833442360BDE8F0872A46BB
S3150000354000F0D6FA06460028E0D121695046FFF77A
S31500003550B7FE0C234FF0FF30CAF80030A38943F0C2
S315000035604003A381E9E7FFFF2DE9F04F98468B89D9
S315000035709DB007461B060D46144610D50B6973B958
S315000035804021FFF709FF2860286130B90C233B6012
S315000035904FF0FF301DB0BDE8F08F40236B61002374
S315000035A0CDF80C804FF00109DFF8A08109932023A4
S315000035B08DF8293030238DF82A3023469A4613F8A1
S315000035C0012B0AB1252AF9D1BAEB040B0BD05B46C5
S315000035D0224629463846FFF76BFF013000F0A780E8
S315000035E0099A5A4409929AF80030002B00F09F80FD
S315000035F000234FF0FF320AF1010A049307938DF876
S3150000360053301A93CDE90523544605224F4814F842
S31500003610011B00F05FFA049AD8B9D00644BF2023F4
S315000036208DF85330110744BF2B238DF853309AF889
S3150000363000302A2B15D0079A544600204FF00A0C6A
S31500003640214611F8013B303B092B4BD9B0B107920B
S3150000365014E0A0EB0803A24609FA03F3134304930C
S31500003660D2E7039B191D1B68002B0391BBBF5B426E
S3150000367042F0020207930793B8BF049223782E2BD9
S315000036800AD163782A2B32D1039B02341A1D1B6898
S3150000369043EAE37303920593DFF8C0A0032221787F
S315000036A0504600F017FA38B1A0EB0A004022049BFE
S315000036B0013482401343049314F8011B0622244864
S315000036C08DF8281000F006FA002836D0214B1BBBD7
S315000036D0039B073323F0070308330393099B334403
S315000036E009936AE70CFB02320C460120A8E7002387
S315000036F001344FF00A0C19460593204610F8012BA9
S31500003700303A092A03D9002BC6D00591C4E70CFB31
S31500003710012104460123F0E703AB2A4604A93846F3
S3150000372000930D4BAFF30080421C0646D6D1AB8901
S315000037305B063FF52DAF09982CE703AB2A4604A993
S3150000374038460093044B00F07DF8EDE7585B000027
S31500003750625B000000000000B13400005E5B000008
S315000037602DE9F047164698468A6807460B690C46C7
S31500003770DDF820909342B8BF1346336091F843209A
S315000037800AB1013333602368990642BF33680233B6
S315000037903360256815F0060506D104F1190AE368B9
S315000037A032689B1AAB422BDC94F843302268003B0C
S315000037B018BF0123920630D404F14302414638462D
S315000037C0C847013023D023681A3454F80A2C03F072
S315000037D00603042B0ABF54F80E5C002533684FF02D
S315000037E0000608BFED1A54F8123C08BF25EAE57535
S315000037F09342C4BF9B1AED18B5421AD1002008E0C7
S315000038000123524641463846C847013003D14FF09E
S31500003810FF30BDE8F0870135C1E7E1185A1C3020BA
S315000038200233224481F8430094F8451082F843108D
S31500003830C2E70123224641463846C8470130E6D052
S315000038400136D9E72DE9FF470F7E914680460C46A3
S31500003850782F9A460C9E01F1430207D8622F0AD8A8
S31500003860002F00F0D180582F00F0B88004F14206F6
S3150000387084F842703AE0A7F16303152BF6D801A14C
S3150000388051F823F0DD380000F13800006D380000F3
S315000038906D3800006D3800006D380000F13800000A
S315000038A06D3800006D3800006D3800006D3800007E
S315000038B0EF3900001B390000A93900006D380000FF
S315000038C06D380000113A00006D3800001B39000009
S315000038D06D3800006D380000B139000033681A1DDC
S315000038E01B68326004F1420684F8423001239CE0F2
S315000038F033682068191D3160060601D51D6803E08E
S315000039004506FBD5B3F90050002D03DA2D236D4291
S3150000391084F8433058480A2311E0216833680806C2
S3150000392053F8045B02D4490648BFADB26F2F33602B
S31500003930514814BF0A230823002184F843106668FF
S31500003940002EA66005DB21682E4321F004012160CC
S315000039504BD01646B5FBF3F103FB1157C75D06F8CE
S31500003960017D2F460D46BB42F4D9082B0BD12368A7
S31500003970DF0708D5236961689942DEBF302306F860
S31500003980013C06F1FF36921B22614B4603AA2146F3
S315000039904046CDF800A0FFF7E3FE01304AD14FF0D4
S315000039A0FF3004B0BDE8F087236843F020032360AE
S315000039B078273248236884F845701F06316851F825
S315000039C0045B02D45F0648BFADB23160D90744BF7D
S315000039D043F0200323601DB11023ADE72648E9E735
S315000039E0236823F020032360F6E71646BDE7336815
S315000039F02568181D616930602E061B6801D519609F
S31500003A0002E06806FBD51980002316462361BCE751
S31500003A10336800211A1D32601E686268304600F065
S31500003A2059F808B1801B606063682361002384F83D
S31500003A304330AAE72369324649464046D04701301B
S31500003A40ADD023689B0713D4E068039B9842B8BFA8
S31500003A501846A6E70123324649464046D04701307C
S31500003A609DD00135E36803995B1AAB42F2DCEBE7C4
S31500003A70002504F11906F5E7695B00007A5B000092
S31500003A80884210B501EB020402D98442234607D8C6
S31500003A90431EA14208D011F8012B03F8012FF8E7C5
S31500003AA0024401468A4200D110BD13F8014D02F8C6
S31500003AB0014DF7E738B50023054D044608462B604F
S31500003AC0FEF7CEFD431C02D12B6803B1236038BD3F
S31500003AD078060020C9B20346024410B59342184640
S31500003AE001D1002003E0047801338C42F6D110BDE9
S31500003AF02DE9F041074614460D4621B91146BDE8A9
S31500003B00F041FFF749BC2AB92546FFF7D9FB2846FD
S31500003B10BDE8F08100F01AF88442064602D8B4EBFC
S31500003B20500FF4D821463846FFF736FC804608B9D0
S31500003B304546ECE7B4422246294628BF3246FFF7FF
S31500003B40A9FB29463846FFF7BBFBF1E751F8043CD1
S31500003B50181F002BBCBF0B58C0187047FFFFFFFF94
S31500003B6008B52DED048BB0EE408AF0EE608A00F0C9
S31500003B70CFF8B0EE409AF0EE609AB0EE480AF0EE5A
S31500003B80680A00F0B5F878B119A3D3E9002351EC1F
S31500003B90180BFFF7F5FA70B917A3D3E9002351EC18
S31500003BA0180BFFF7CFFA98B9B0EE490AF0EE690A9A
S31500003BB0BDEC048B08BD9FED0A9BFFF763FB222338
S31500003BC0B0EE490AF0EE690A0360BDEC048B08BD4D
S31500003BD0FFF758FB22239FED049B0360E4E700BF39
S31500003BE0000000000000F07F000000000000000060
S31500003BF0EF39FAFE422E864051302DD5104987C046
S31500003C00F8B555EC114B2DED028B57EC106B00F00F
S31500003C104FFA22462B4620462946B0EE408AF0EE61
S31500003C20608A01F01BFC78B9002200233046394631
S31500003C30FFF77EFAF0B10022002320462946FFF75F
S31500003C4077FA40B19FED288BB0EE480AF0EE680A8D
S31500003C50BDEC028BF8BD45EC104B00F049F800288E
S31500003C60F2D00022002320462946FFF76BFA0028EF
S31500003C70EAD02EE0B0EE480AF0EE680A00F038F816
S31500003C80A0B10022002351EC180BFFF751FA0028CF
S31500003C90DAD047EC106B00F02BF80028D4D045ECB6
S31500003CA0104B00F025F80028CED012E047EC106B40
S31500003CB000F01EF80028E4D045EC104B00F018F890
S31500003CC00028DED053EC182B51EC180B01F0C6FB84
S31500003CD020B9FFF7D7FA22230360B5E7FFF7D2FA38
S31500003CE021230360B0E700BF000000000000F03FA2
S31500003CF082B005488DED000B019B23F0004318446C
S31500003D00C00F02B0704700BF00001080FFFFFFFF2A
S31500003D102DE9F04755EC104B25F00042D84986B006
S31500003D20EE0F8A420DD9D7498A4271D9C5F31303DA
S31500003D302246234340F05381002E66D09FEDB80BF8
S31500003D4063E0D14B9A4200F22F81D04B9A4240F267
S31500003D50148122462B462046294601F06DF9064677
S31500003D600F46B1A3D3E9002301F066F9B0A3D3E966
S31500003D700023FEF7CFFF32463B4601F05DF9AEA3C6
S31500003D80D3E90023FEF7C8FF32463B4601F054F95B
S31500003D90ABA3D3E90023FEF7BDFF32463B4601F055
S31500003DA04BF9A9A3D3E90023FEF7B6FF32463B46FB
S31500003DB001F042F902460B4620462946FEF7AAFFC5
S31500003DC0CDE90201DDE902892046294642464B46F5
S31500003DD001F032F906460F4600224FF08043404676
S31500003DE04946FEF797FF02460B463046394601F034
S31500003DF04DFA22462B46FEF78DFF02460B46002063
S31500003E00A349FEF787FF41EC100B06B0BDE8F0872B
S31500003E108FA3D3E9002320462946FFF7B1F90746C9
S31500003E20002840F0E680204629468BA3D3E90023EC
S31500003E30FFF788F9002840F03581964B2046294641
S31500003E4003EBC60686A3D3E9002301F0F5F8D6E90D
S31500003E500023FEF761FF01F017FB8246FFF7A8F883
S31500003E6006460F4680A3D3E9002301F0E5F8024693
S31500003E700B4620462946FEF74DFF804689463046CA
S31500003E8039467BA3D3E9002301F0D6F8CDE900013A
S31500003E90DDE9002340464946FEF73CFF02460B4655
S31500003EA004460D4601F0C8F806460F465EA3D3E960
S31500003EB0002301F0C1F85EA3D3E90023FEF72AFF31
S31500003EC032463B4601F0B8F85BA3D3E90023FEF780
S31500003ED023FF32463B4601F0AFF859A3D3E900234E
S31500003EE0FEF718FF32463B4601F0A6F856A3D3E983
S31500003EF00023FEF711FF32463B4601F09DF80246CD
S31500003F000B4620462946FEF705FF06460F46204685
S31500003F10294632463B46CDE9026701F08DF8CDE9E8
S31500003F200401BAF1000F3FF44DAF32463B46002084
S31500003F304FF08041FEF7EEFE02460B46DDE9040136
S31500003F4001F0A4F902460B46DDE90001FEF7E2FEA8
S31500003F5042464B46FEF7DEFE02460B4600204C4923
S31500003F60FEF7D8FE6FF47F72924548DB01EB0A51EB
S31500003F7041EC100B06B0BDE8F0873FA3D3E9002360
S31500003F8020462946FEF7C8FE0022414BFFF7F8F807
S31500003F9000283FF4DEAE00223D4B20462946FEF7C0
S31500003FA0BBFE41EC100B30E73B4B9A423FF645AF68
S31500003FB03A4B20462946F40003EBC60386F0010A75
S31500003FC0D3E90023FEF7A6FE354B804689462344F7
S31500003FD0AAEB060A93ED007B8DED007B58E72B4696
S31500003FE020462946FEF798FE41EC100B06B0BDE8C8
S31500003FF0F087002006B0BDE8F04700F025BF0AF5BF
S315000040007A7A00224FF0B87301EB0A5101F014F8E6
S3150000401041EC100B06B0BDE8F08700BFAFF300809F
S315000040200000000000000000D0A4BE726937663EA2
S31500004030F16BD2C541BDBB3E2CDE25AF6A56113FA2
S3150000404093BDBE166CC1663F3E5555555555C53F89
S31500004050EF39FAFE422E864051302DD5104987C0E1
S31500004060FE822B654715F73F0000E0FE422EE63F35
S31500004070763C7935EF39EA3D9C7500883CE4377E1D
S31500004080412E8640FFFFEF7F422ED63FFFFFEF3DDA
S315000040900000F03FB05B0000B1A2F03FA05B000063
S315000040A0905B0000384606B0BDE8F04700F0C4BE9D
S315000040B02DE9F04F55EC114B25F0004393B053EA30
S315000040C0040057EC106B12D1B31987F4002284490F
S315000040D05241984291411DD222462B4630463946DE
S315000040E0FEF71AFE41EC100B13B0BDE8F08F7D48C9
S315000040F027F0004AB9463146824510D97A4A4A44E1
S315000041000A43E9D1231985F40021754849419A42A9
S315000041108841E1D39FED700B13B0BDE8F08FA84640
S315000041202246504601D1002ED6D1DFF8B8C16345EC
S31500004130E4D801D1002AE1D1B9F1000F20DB002A31
S315000041405DD1DFF8A0C163450BD09346674A934221
S3150000415040F0C784B8F1000FC0F20C8547EC106B35
S31500004160C2E7614B53440B43D4D0614B9A4540F2AE
S31500004170CA84B8F1000FC0F24F8545EC104BB3E787
S31500004180DFF874C163454BD9002A40F0E483554AF1
S315000041909342E6D04FF0020B04910290009347EC55
S315000041A0106B00F087FD0499009B029800295ED0F1
S315000041B04FEAD972013A52EA0B0100F08A800BF1FC
S315000041C0FF3B5BEA020B00F0A1839FED437B8DED85
S315000041D0047BB3F1844F40F29180464A9342444BAC
S315000041E040F222849A4500F2CF84B8F1000FC0F263
S315000041F0CF84002013B0BDE8F04F00F01DBE4FF095
S31500004200000B04910290009347EC106B00F052FDF6
S315000042100499009B029851B34FEAD972013ACEE74E
S31500004220DFF8CCC063450FD94FEA235CACF2FF3C04
S31500004230BCF1140F40F37E84CCF1340C22FA0CFE50
S315000042400EFA0CFC94453CD0002A40F08783B8F166
S31500004250804F00F0858404910290009347EC106B28
S3150000426000F028FD0499009B029891BB8B4629F02B
S3150000427040421E498A4202D0BAF1000F98D1B8F1E5
S31500004280000F07DA0020194953EC102B00F0FEFF4F
S3150000429041EC100BB9F1000FBFF626AF124B534499
S315000042A053EA0B0340F09C8453EC102B104619463E
S315000042B0FEF730FD02460B4600F0E8FF41EC100B1E
S315000042C012E7002A00F048840EF0010ECEF1020B30
S315000042D097E732463B46E9E7000000000000F03F62
S315000042E00000F0FF0000F07F000010C00000F03F6B
S315000042F0FFFFEF3F0000F043FFFF3F43D84B002294
S3150000430009EA030353B9D74B51EC100B00F094FEA6
S315000043106FF0340241EC100B10EE900A0315C0F357
S315000043201300D14EA3F2FF3306439A18CF4B98429F
S315000043300B9240F32C83CE4B984240F32F840132EC
S31500004340A6F5801600270B929FEDAF7B8DED087BBF
S315000043509FEDAF7B8DED067B9FEDAB7B8DED107BEF
S3150000436053EC102B9246B34631465046DDE9062300
S31500004370FEF7D0FC80468946504631467610DDE988
S315000043800623CDE90CABFEF7C7FC02460B46002020
S31500004390B54946F0005600F079FF8C4683464946FB
S315000043A0634640465A46CDE90EBC00F045FE0A4635
S315000043B0014606F500230020CDE90012CDE90212E0
S315000043C00021064602460091D919DDE900AB0F46E9
S315000043D00B465046594600F02FFE02460B46404615
S315000043E04946FEF797FC8046894630463946DDE960
S315000043F00623FEF78FFC02460B46DDE90C01FEF7AD
S3150000440089FC52465B4600F017FE02460B464046C4
S315000044104946FEF77FFCDDE90E2300F00DFEDDE9DF
S315000044200267CDE9060132463B463046394600F082
S3150000443003FE06460F4678A3D3E9002300F0FCFDF1
S3150000444077A3D3E90023FEF767FC32463B4600F02C
S31500004450F3FD75A3D3E90023FEF75EFC32463B4627
S3150000446000F0EAFD72A3D3E90023FEF755FC3246BD
S315000044703B4600F0E1FD70A3D3E90023FEF74CFCB8
S3150000448032463B4600F0D8FD6DA3D3E90023FEF784
S3150000449043FC8046894632463B463046394600F064
S315000044A0CBFD02460B464046494600F0C5FD524646
S315000044B006460F465B46DDE90201FEF72DFCDDE907
S315000044C0062300F0B9FD32463B460026FEF724FCE3
S315000044D05246804689465B465046594600F0ACFD3A
S315000044E002460B46CDE90C230022624BFEF714FC74
S315000044F042464B46FEF710FC0F46324650463B46B8
S31500004500594600F099FD002282468B46594B3046AB
S315000045103946FEF7FFFBDDE90C23FEF7FBFB0246FF
S315000045200B4640464946FEF7F5FBDDE9022300F05F
S3150000453083FD8046894632463B460026DDE9060174
S3150000454000F07AFD02460B4640464946FEF7E4FB7C
S31500004550804689465046424659464B46FEF7DCFBA6
S315000045600F46304638A3D3E9002300F065FD5246D6
S315000045705B4682468B4630463946FEF7CBFB024603
S315000045800B4640464946FEF7C5FB31A3D3E9002357
S3150000459000F052FD02460B463046394616461F4687
S315000045A02DA3D3E9002300F047FD02460B46304613
S315000045B03946FEF7B1FBDDE91023FEF7ADFB0646F3
S315000045C00F460B98FEF7F4FC3246804689463B467A
S315000045D050465946CDE902ABFEF79EFBDDE90823BE
S315000045E0FEF79AFB42464B46FEF796FB00204246F4
S315000045F04B4682468B46FEF78DFBDDE90823FEF728
S3150000460089FBDDE9022337E000000000000000001E
S31500004610000000000000F03FEF4E454A287ECA3FEA
S3150000462065DBC9934A86CD3F01411DA96074D13F20
S315000046304D268F515555D53FFFAB6FDBB66DDB3F32
S31500004640033333333333E33F000000E009C7EE3F63
S31500004650FD033ADC09C7EE3FF5015B14E02F3EBED1
S315000046600000F07F000040430000F03F8E980300FA
S3150000467079B60B0000000840FEF74CFB02460B46DD
S3150000468030463946FEF746FB0023CDE90045009348
S31500004690DDE90089CDE902014246204629464B461E
S315000046A0FEF738FB52465B4600F0C6FC06460F4650
S315000046B022462B46DDE9020100F0BEFC02460B460F
S315000046C030463946FEF728FB04460D4642464B4621
S315000046D050465946CDE9024500F0AEFC06460F4667
S315000046E02046294632463B46FEF716FBC84B044693
S315000046F00D469942884640F30E81C64B0B44034350
S3150000470040F05C82AAA3D3E90023DDE90201FEF7AB
S3150000471003FB02460B462046294614461D463246F2
S315000047203B46FEF7F7FA02460B4620462946FEF7B9
S3150000473027FD002840F042824FF400734344B64CF4
S31500004740B8F1000F4FF00000C3F30A52C3F3130A87
S31500004750A2F2FF324AF4801A44FA02F4C2F11402B9
S3150000476004EA03014AFA02FA024630460B46B8BF8B
S31500004770CAF1000A3946FEF7CDFA02460B4606464E
S315000047800F464FEA0A5BDDE90201FEF7C5FA0D4660
S315000047900024294688A3D3E90023204600F04CFCD8
S315000047A03246804689463B4620462946FEF7B2FAFF
S315000047B002460B46DDE90201FEF7ACFA80A3D3E917
S315000047C0002300F039FC02460B46204629461446D3
S315000047D01D467DA3D3E9002300F02EFC02460B46BE
S315000047E020462946FEF798FA06460F4640463246C8
S315000047F049463B46FEF790FA424604460D464B466E
S31500004800FEF788FA02460B4630463946FEF782FA2C
S315000048102246804689462B462046294600F00CFC57
S3150000482006460F466AA3D3E9002300F005FC6AA3F7
S31500004830D3E90023FEF76EFA32463B4600F0FCFB56
S3150000484067A3D3E90023FEF767FA32463B4600F03A
S31500004850F3FB65A3D3E90023FEF75CFA32463B4639
S3150000486000F0EAFB62A3D3E90023FEF755FA3246CD
S315000048703B4600F0E1FB02460B4620462946FEF782
S3150000488049FA06460F462046324629463B4600F080
S31500004890D3FB02460B463046394616461F460022D3
S315000048A04FF08043FEF736FA02460B46304639464D
S315000048B000F0ECFC424606460F464B46204629468B
S315000048C000F0BAFB42464B46FEF726FA02460B4676
S315000048D030463946FEF71EFA22462B46FEF71AFAEE
S315000048E002460B4600204D49FEF714FA0B46594482
S315000048F00246B1F5801FC0F26B811046DDE9042344
S3150000490000F09AFB41EC100BFFF7EEBB9FED3A7BF4
S315000049108DED047B5DE421F00043DFF808C16345BB
S3150000492040F2FF803E4B0B4403430AD132463B46DE
S31500004930FEF7F0F9DDE90223FEF718FC00283FF444
S31500004940FBAE00220023DDE90401FEF7FBFB003885
S3150000495018BF01204EE44FF0020B52E447EC106BF7
S31500004960009100F0A7F9009900297FF4B2AC29F074
S3150000497040492A4B994503D0BAF1000F7FF4A9AC00
S31500004980B8F1000FC0F259814FF0000B86E49FED9D
S315000049901C7B00278DED087B9FED1B7B8DED067B39
S315000049A09DED087B8DED107BDAE400BFAFF3008050
S315000049B0FE822B654715973C00000000432EE63F1C
S315000049C0EF39FAFE422EE63F396CA80C615C20BE38
S315000049D0D0A4BE726937663EF16BD2C541BDBB3EFF
S315000049E02CDE25AF6A56113F93BDBE166CC1663FDD
S315000049F03E5555555555C53F000000000000F0BF17
S31500004A000000000000000000000000000000F03F71
S31500004A10FFFF8F40000070BF0000F0FF0000F03F76
S31500004A2000346F3FFFCB90409A45C0F0E7809E4B25
S31500004A3000229A4500F2F4809B4B51EC100BFEF7D6
S31500004A4069F906460F4688A3D3E9002300F0F4FA75
S31500004A5082468B463046394685A3D3E9002300F0CB
S31500004A60EBFA0022914BCDE900013046394600F0C1
S31500004A70E3FA02460B4680A1D1E90001FEF74AF9A6
S31500004A8032463B4600F0D8FA02460B4600208849DB
S31500004A90FEF740F98046894632463B46304639465F
S31500004AA000F0CAFA02460B464046494600F0C4FAF0
S31500004AB073A3D3E9002300F0BFFA02460B46DDE9F3
S31500004AC00001FEF727F906460F465046594632467C
S31500004AD03B46FEF721F9002052465B4682468B464E
S31500004AE0CAE5B8F1804F3BD0714A90457FF454AB8C
S31500004AF0B9F1000FFFF650AB47EC106B13B0BDE8F1
S31500004B00F04F00F0A9B9B8F1000F9FED5F0BBFF6AB
S31500004B10EBAA05F1004300EE104A00EE903AFFF7CB
S31500004B20E3BA634A934200F29480DDE90023934698
S31500004B3092462DE6002A7FF411AFCCF1140C43FA0D
S31500004B400CFE0EFA0CFC9C457FF4FFAA0EF0010E3B
S31500004B50CEF1020BFFF7FABAB8F1804F7FF41AAB29
S31500004B6032463B463046394600F066FA41EC100BB9
S31500004B70FFF7BABA00204C4932463B4600F086FBA6
S31500004B8041EC100BFFF7B0BAB8F1000F7FF731AB6D
S31500004B90002013B0BDE8F04F00F056B99FED3C7B06
S31500004BA04FF480278DED087B9FED3B7B8DED107BD1
S31500004BB09FED3B7B8DED067BFFF7D2BB00220023EA
S31500004BC0DDE90401FEF7BEFA003818BF0120E0E770
S31500004BD0504643EC102B00F077F851EC100B8DE6A5
S31500004BE0BBF1010F7FF480AA10EE901A10EE102A86
S31500004BF001F1004343EC102BFFF776BA00220023A5
S31500004C00DDE90401FEF79EFA003818BF0120B8F16D
S31500004C10000FBFF6EFAABCE79FED1B0BFFF764BAC8
S31500004C200023DDE90401FEF78DFA003818BF0120E4
S31500004C30B8F1000FADDCFFF7DDBA53EC102B002006
S31500004C40194900F023FB4FF0000B41EC100BFFF766
S31500004C5025BB1B154FF48012A3F2FE3342FA03F371
S31500004C606CE500BFAFF30080000000604715F73F1A
S31500004C7044DF5DF80BAE543E555555555555D53F59
S31500004C80FE822B654715F73F00000000000000007C
S31500004C900000004003B8E23F06D0CF43EBFD4C3E98
S31500004CA0000000000000F83F0000F03F0000D03F89
S31500004CB00000E03F51EC100B024621F0004343ECAC
S31500004CC0102B7047FFFFFFFF70B555EC104BC5F377
S31500004CD00A522B46064672BB25F00043234329D0D1
S31500004CE03B4B20462946002200F0A6F9394B0446E4
S31500004CF00D469E4252DBC1F30A520B46363A4CF23F
S31500004D0050318E4223DC164440F2FE7296421EDC7F
S31500004D10002E34DC16F1350F38DB6FF31E533636B2
S31500004D200022204643EA06552B4B294600F084F91B
S31500004D3041EC100B70BD40F2FF718A42DFD1224672
S31500004D4020462946FDF7E8FF41EC100B70BD002D0B
S31500004D5017A1D1E9000107DB15A3D3E9002300F071
S31500004D606BF941EC100B70BD13A1D1E9000110A342
S31500004D70D3E9002300F060F941EC100BF3E76FF381
S31500004D801E5343EA065545EC104B70BD002D0CA191
S31500004D90D1E9000102DA0CA1D1E9000108A3D3E9A7
S31500004DA0002300F049F941EC100B70BDAFF3008011
S31500004DB09C7500883CE4377E9C7500883CE437FE91
S31500004DC059F3F8C21F6EA50159F3F8C21F6EA581EB
S31500004DD000005043B03CFFFF0000903C10B52DEDA5
S31500004DE0028BB0EE408AF0EE608A0446FEF74AFA7D
S31500004DF00460B0EE480AF0EE680ABDEC028B10BD06
S31500004E0000B553EC102B83B090B1104603F100416E
S31500004E10CDE9000110461946DDE9002300F00CF942
S31500004E2041EC100B222003B05DF804EBFFF7D6BF70
S31500004E3010461946ECE700BF9FED010BFFF7E0BFF8
S31500004E4000000000000000109FED010BFFF7D8BF27
S31500004E50000000000000007073482DE9F84F55EC83
S31500004E60104BA84322462B4600F09E80002D21467B
S31500004E705EDD2C1500F0C880C3F31303E207A4F22D
S31500004E80FF3743F4801303D4CA0F490002EB4303F0
S31500004E905B0000264A004FF0160C03EBD173B646B2
S31500004EA07F104FF400110EEB0100D40F5200984210
S31500004EB003DC00EB010E1B1A0E44BCF1010C04EBE3
S31500004EC043034FEA5101EED1654620244FF00041DD
S31500004ED013E0904208D89E4506D1002800EB010C4D
S31500004EE03DDB0023121A0D44D00F013C4FEA51015D
S31500004EF000EB43034FEA420235D09E450CEB01001E
S31500004F00E7DA002800EB010C07DB9042F046A3EB42
S31500004F100E030BD9013BC646E4E7BCF1000FF4DBF8
S31500004F2090420EF10108A3EB0E03F3D8C646D9E76B
S31500004F3025F00040204335D0002D5AD1CA0A153B32
S31500004F404905002AFAD0D6021C46084613465CD507
S31500004F5020254FF0FF32E840A41A03438CE7BCF14A
S31500004F60000FDDDABDE7134312D0DFF8C4A0DFF887
S31500004F70C4B0DAE90001DBE90023DAE90089FDF7CC
S31500004F80C9FE02460B4640464946FEF7E5F8B8B963
S31500004F906C08264944EAC67201EB660101EB075329
S31500004FA043EC102BBDE8F88F2046294600F044F864
S31500004FB022462B46FDF7B0FE41EC100BBDE8F88FFC
S31500004FC0B5F1FF3FDAE90001DBE9002328D0FDF760
S31500004FD0A3FE02460B46DAE9008940464946FEF73B
S31500004FE0B1F8F8B1AB1C05F1020408BF013664083C
S31500004FF0CFE720462946FDF78DFE02460B4600F018
S3150000500045F941EC100BCDE7104600215B000A463E
S315000050100131DD02FAD5C1F1200500FA01F19AE766
S315000050200136B6E70135B3E70000F07F0000E03F48
S31500005030C85B0000C05B000070B54FF0FF0C4CF47D
S31500005040E06C1CEA11541DBF1CEA135594EA0C0FC0
S3150000505095EA0C0F00F0DEF82C4481EA030621EAFB
S315000050604C5123EA4C5350EA013518BF52EA033536
S3150000507041F4801143F4801338D0A0FB02CE4FF0E8
S315000050800005E1FB02E506F00042E0FB03E54FF018
S315000050900006E1FB03569CF0000F18BF4EF0010E10
S315000050A0A4F1FF04B6F5007F64F5407404D25FEA0C
S315000050B04E0E6D4146EB060642EAC62141EA5551BF
S315000050C04FEAC52040EA5E504FEACE2EB4F1FD0C01
S315000050D088BFBCF5E06F1ED8BEF1004F08BF5FEA7F
S315000050E0500E50F1000041EB045170BD06F0004631
S315000050F046EA010140EA020081EA0301B4EB5C04DE
S31500005100C2BFD4EB0C0541EA045170BD41F48011D5
S315000051104FF0000E013C00F3AB8014F1360FDEBFFA
S31500005120002001F0004170BDC4F10004203C35DAD6
S315000051300C341BDC04F11404C4F1200500FA05F359
S3150000514020FA04F001FA05F240EA020001F00042FA
S3150000515021F0004110EBD37021FA04F642EB060170
S315000051605EEA430E08BF20EAD37070BDC4F10C049A
S31500005170C4F1200500FA04F320FA05F001FA04F25E
S3150000518040EA020001F0004110EBD37041F100014A
S315000051905EEA430E08BF20EAD37070BDC4F1200555
S315000051A000FA05F24EEA020E20FA04F301FA05F2BD
S315000051B043EA020321FA04F001F0004121FA04F265
S315000051C020EA020000EBD3705EEA430E08BF20EA35
S315000051D0D37070BD94F0000F0FD101F0004640006F
S315000051E041EB010111F4801F08BF013CF7D041EAF1
S315000051F0060195F0000F18BF704703F000465200F5
S3150000520043EB030313F4801F08BF013DF7D043EAC5
S315000052100603704794EA0C0F0CEA135518BF95EA7B
S315000052200C0F0CD050EA410618BF52EA4306D1D102
S3150000523081EA030101F000414FF0000070BD50EA21
S31500005240410606BF1046194652EA430619D094EAAB
S315000052500C0F02D150EA013613D195EA0C0F05D195
S3150000526052EA03361CBF104619460AD181EA0301E9
S3150000527001F0004141F0FE4141F470014FF00000A1
S3150000528070BD41F0FE4141F4780170BD70B54FF03C
S31500005290FF0C4CF4E06C1CEA11541DBF1CEA1355BC
S315000052A094EA0C0F95EA0C0F00F0A7F8A4EB05049E
S315000052B081EA030E52EA03354FEA013100F0888095
S315000052C04FEA03334FF0805545EA131343EA12635E
S315000052D04FEA022245EA111545EA10654FEA002613
S315000052E00EF000419D4208BF964244F1FD0404F5CC
S315000052F0407402D25B084FEA3202B61A65EB030528
S315000053005B084FEA32024FF480104FF4002CB6EBE4
S31500005310020E75EB030E22BFB61A754640EA0C0064
S315000053205B084FEA3202B6EB020E75EB030E22BFA4
S31500005330B61A754640EA5C005B084FEA3202B6EBE5
S31500005340020E75EB030E22BFB61A754640EA9C00A4
S315000053505B084FEA3202B6EB020E75EB030E22BF74
S31500005360B61A754640EADC0055EA060E18D04FEA32
S31500005370051545EA16754FEA06164FEAC30343EAD2
S3150000538052734FEAC2025FEA1C1CC0D111F4801F9F
S315000053900BD141EA00014FF000004FF0004CB6E798
S315000053A011F4801F04BF01430020B4F1FD0C88BF37
S315000053B0BCF5E06F3FF6AFAEB5EB030C04BFB6EB42
S315000053C0020C5FEA500C50F1000041EB045170BD35
S315000053D00EF0004E4EEA113114EB5C04C2BFD4EB62
S315000053E00C0541EA045170BD41F480114FF0000EE6
S315000053F0013C90E645EA060E8DE60CEA135594EA62
S315000054000C0F08BF95EA0C0F3FF43BAF94EA0C0F64
S315000054100AD150EA01347FF434AF95EA0C0F7FF4D9
S3150000542025AF104619462CE795EA0C0F06D152EA2D
S3150000543003353FF4FDAE1046194622E750EA410611
S3150000544018BF52EA43067FF4C5AE50EA41047FF422
S315000054500DAF52EA43057FF4EBAE12E74FEA410C7B
S315000054607FEA6C5C02D150EA013C0AD14FEA430C58
S315000054707FEA6C5C02D152EA033C02D14FF0000095
S3150000548070474FF0010070474FEA410212F50012D3
S3150000549015D211D56FF47873B3EB625212D94FEA75
S315000054A0C12343F0004343EA505311F0004F23FA5F
S315000054B002F018BF404270474FF00000704750EAB4
S315000054C0013005D111F0004008BF6FF00040704771
S315000054D04FF00000704700BF4275696C7420776911
S315000054E074682052656E6573617320416476616EDF
S315000054F063656420466C657869626C6520536F66E7
